{
  "contractName": "Purchase",
  "abi": [
    {
      "constant": false,
      "inputs": [],
      "name": "getPurchasers",
      "outputs": [
        {
          "name": "",
          "type": "address[16]"
        }
      ],
      "payable": false,
      "type": "function"
    },
    {
      "constant": true,
      "inputs": [
        {
          "name": "",
          "type": "uint256"
        }
      ],
      "name": "purchasers",
      "outputs": [
        {
          "name": "",
          "type": "address"
        }
      ],
      "payable": false,
      "type": "function"
    },
    {
      "constant": false,
      "inputs": [
        {
          "name": "vegId",
          "type": "uint256"
        }
      ],
      "name": "buy",
      "outputs": [
        {
          "name": "",
          "type": "uint256"
        }
      ],
      "payable": false,
      "type": "function"
    }
  ],
  "bytecode": "0x6060604052341561000f57600080fd5b5b61025d8061001f6000396000f300606060405263ffffffff7c01000000000000000000000000000000000000000000000000000000006000350416630409eb85811461005357806312923b65146100a0578063d96a094a146100df575b600080fd5b341561005e57600080fd5b610066610107565b604051808261020080838360005b8381101561008d5780820151818401525b602001610074565b5050505090500191505060405180910390f35b34156100ab57600080fd5b6100b660043561015f565b60405173ffffffffffffffffffffffffffffffffffffffff909116815260200160405180910390f35b34156100ea57600080fd5b6100f5600435610193565b60405190815260200160405180910390f35b61010f610208565b600060106102006040519081016040529190610200830182845b815473ffffffffffffffffffffffffffffffffffffffff168152600190910190602001808311610129575b505050505090505b90565b6000816010811061016c57fe5b0160005b915054906101000a900473ffffffffffffffffffffffffffffffffffffffff1681565b60008082101580156101a65750600f8211155b15156101b157600080fd5b33600083601081106101bf57fe5b0160005b6101000a81548173ffffffffffffffffffffffffffffffffffffffff021916908373ffffffffffffffffffffffffffffffffffffffff1602179055508190505b919050565b6102006040519081016040526010815b60008152600019909101906020018161021857905050905600a165627a7a72305820ef7f0133d345e995bf832af4ff96e39902d783ab59e7897f1760eb03c68eb1240029",
  "source": "pragma solidity ^0.4.4;\n\n/*\n** Code below from http://truffleframework.com/tutorials/pet-shop\n** adapted for farmer_dapp\n**\n** Anselme\n*/\n\ncontract Purchase\n{\n\taddress[16] public purchasers;\n\n\tfunction buy(uint vegId) public returns (uint)\n\t{\n\t\trequire(vegId >= 0 && vegId <= 15);\n\t\tpurchasers[vegId] = msg.sender;\n\t\treturn vegId;\n\t}\n\n\tfunction getPurchasers() public returns (address[16])\n\t{\n\t\treturn purchasers;\n\t}\n}\n",
  "sourcePath": "/home/shensheng/farmer_dapp/truffle/contracts/Purchase.sol",
  "schemaVersion": "1.0.0",
  "updatedAt": "2017-09-25T13:46:52.643Z"
}